:020000040800F2
:10000000B806002045010008A1290008971D000836
:100010005D290008ED0800084942000800000000C2
:10002000000000000000000000000000E92A0008B5
:10003000F108000800000000A3290008EB2A0008CE
:100040005F0100085F0100085F0100085F01000810
:100050005F0100085F0100085F010008C309000894
:100060005F0100085F0100085F0100085F010008F0
:100070005F0100085F0100085F0100085F010008E0
:100080005F0100085F0100085F0100085F010008D0
:100090005F0100085F0100085F0100085F010008C0
:1000A0005F0100085F0100085F0100085F010008B0
:1000B0005F010008752E00085F0100085F0100085D
:1000C0005F0100085F0100085F0100085F01000890
:1000D0005F010008D14100085F0100085F010008CE
:1000E0005F0100085F0100085F0100085F01000870
:1000F0005F0100085F0100085F0100085F01000860
:100100005F0100085F0100085F0100085F0100084F
:100110005F0100085F0100085F0100085F0100083F
:100120005F0100085F0100085F0100085F0100082F
:10013000DFF80CD000F036FB00480047814A000889
:10014000B80600200648804706480047FEE7FEE75D
:10015000FEE7FEE7FEE7FEE7FEE7FEE7FEE7FEE777
:10016000612B00083101000840EA01039B0703D01E
:1001700009E008C9121F08C0042AFAD203E011F8E6
:10018000013B00F8013B521EF9D27047421C10F8A7
:10019000011B0029FBD1801A7047F0B480EA0102EC
:1001A000D40F4200B2EB410F02D20246084611467C
:1001B0004A0042D0C30DDDB2C1F3C752AD1A202DA3
:1001C00035DAC1F3160141F4000204B15242C5F11F
:1001D000200602FA06F12A411044B3EBD05F23D087
:1001E000C4B1012DA0EBC35009DCF0BC4FF00042BC
:1001F00002EAC352DBB200F5000000F0F7B940009C
:1002000000F1807000EBC350A0F1807040EAD17023
:10021000490009E0490841EAC071A0EBC35000F56C
:100220000000400800EBC350F0BC00F0D6B96142BA
:10023000012202EB4101001BF6E7F0BC704781F0A0
:100240000041AAE780F00040A7E780EA010210B56C
:1002500002F00043400022D04A001FD0010E01EB03
:100260001261C0F35600C2F3560240F4000042F49B
:100270000002A0FB022000047F39140400D0401CBF
:1002800050EA124001D44000491EC2B20C0604EBF1
:10029000D010401C4008802A02D003E0002010BD8E
:1002A00020F00100002900DA0020184310BD30B40E
:1002B00080EA010202F0004530F0004221F00040E7
:1002C00013D090B1C30DD40DC2F31601C0F31600C4
:1002D000E41A41F4000140F400027D34914201D35C
:1002E000641C00E04900002C02DA30BC002070479A
:1002F0004FF400000023914201D3891A03434008C0
:100300004FEA4101F7D151B1914202D14FF0004182
:1003100005E002D24FF0010101E06FF0010103EBB3
:10032000C450284430BC00F058B92DE9FE4F81EA92
:10033000030404F0004421F0004100944FF0000B4E
:1003400023F0004350EA01045ED052EA03045BD07C
:10035000C3F30A54C1F30A552C44A4F2F3340194B4
:10036000A0FB0254C1F3130141F48011C3F3130342
:1003700043F4801301FB024400FB034E840A970AF6
:1003800044EA815447EA8357A4FB076802958D0A23
:1003900005FB07854FEA932C04FB0C542705029DAF
:1003A0004FEA065847EA1637B5EB08056EEB070C1F
:1003B000870E920E47EA811742EA8312A7FB0201D9
:1003C000B6EB0B0164EB00042B0D43EA0C335E1813
:1003D00044EB1C50DA465146E7FB0201C5F3130417
:1003E0004FEA0B3343EA14534FEA0432019C43EAC9
:1003F0000603A4F10C040294009CCDE900B400F0C3
:1004000032F903B0BDE8F08F00200146F9E7C10FD3
:1004100080EAE0700844CA079623002100F0E6B89D
:1004200096230022114600F0E1B80EB540F23341A8
:1004300002910021CDE900110A460B4600F013F9A4
:1004400003B000BD00F0004220F00040C10DC0F339
:10045000160040F400007F2901DA00207047962939
:1004600003DCC1F19601C84001E096398840002ABA
:10047000F4D04042704720F00040C10DC0F3160098
:1004800040F400007F2901DA00207047962903DC40
:10049000C1F19601C8407047963988407047C1F352
:1004A0000A5210B5C1F3130140F2FF3341F4801139
:1004B0009A4201DA002010BD40F233439A42A2F280
:1004C000334203DC524200F078F810BD904010BD7A
:1004D00000F0004230F000400AD0C10D01F560711B
:1004E000C0F3160042EA0151C208400711437047A9
:1004F000002001467047000030B5041E71F1000471
:1005000004DB4FF00044404264EB0101141E73F120
:10051000000405DB1C464FF00043524263EB04032A
:100520008B4208BF824230BD30B5041E71F1000419
:1005300004DB4FF00044404264EB0101141E73F1F0
:10054000000405DB1C464FF00043524263EB0403FA
:10055000994208BF904230BD2DE9F05F054600206A
:1005600092469B4688460646814640241BE0284624
:1005700041464746224600F020F853465A46C01AE4
:10058000914110D311461846224600F01DF92D1A4C
:1005900067EB01084F4622460120002100F014F9C4
:1005A00017EB00094E41201EA4F10104DFDC484690
:1005B00031462A464346BDE8F09F202A04DB203A14
:1005C00021FA02F00021704721FA02F3D040C2F173
:1005D000200291400843194670470029A8BF704780
:1005E000401C490008BF20F00100704710B4B0FA69
:1005F00080FC00FA0CF050EA010404BF10BC704704
:1006000049B1CCF1200421FA04F411FA0CF118BF1D
:10061000012121430843A3EB0C01CB1D4FEA0061EC
:100620004FEA102042BF002010BC704700EBC350BF
:1006300010440029A4BF10BC7047401C490008BFEB
:1006400020F0010010BC704710B5141E73F10004B7
:1006500008DA401C41F1000192185B411A4301D1B4
:1006600020F0010010BD2DE9F04D92469B4611B1DE
:10067000B1FA81F202E0B0FA80F22032904600F046
:10068000A3F804460F4640EA0A0041EA0B0153462C
:100690005A46084313D0114653EA010019D0C8F155
:1006A00040025046FFF789FF05460E465046594620
:1006B000424600F089F8084305D0012004E02046B6
:1006C0003946BDE8F08D0020054346EAE0762C432C
:1006D00037430A986305E40AA0EB08000022FD0AEC
:1006E00044EA47540A3002D500200146E9E70105F3
:1006F00010196941DDE9084500196941BDE8F04D6F
:10070000A2E72DE9F04D00231A461B1A8A4103DBAC
:1007100000200146BDE8F08DC1F30A52C1F3130178
:1007200041F480154FF0000BD10702D100186D4144
:10073000521E0027044640F2FF11384601EB620AC0
:100740003E468046024600204FF48011FFF735FFF9
:10075000C2197141BB1846EB0100B4EB030C75EBF9
:10076000000C04D3E41A65EB000517460E46241965
:1007700008F101006D4180463428E3DDF91946EBAC
:100780000600091BA84103D24FF0FF32134601E0D7
:10079000002213461BEB070046EB0A51BDE8F04D63
:1007A000FFF752BF064C074D06E0E06840F001033A
:1007B00094E8070098471034AC42F6D3FFF7BCFC2E
:1007C000C8A00008E8A00008202A04DB203A00FAAC
:1007D00002F1002070479140C2F1200320FA03F398
:1007E00019439040704710B501F0F4FA10BD2DE99F
:1007F000F04107460C460026002509E0360239196B
:10080000491B491E88B200F008F80644681CC5B2AE
:10081000A542F3DB3046BDE8F08170B50446002602
:1008200001F090FB2546E11704EB11610912A022AB
:1008300002EB4101C8B201F053FB01F0BBFBE11731
:1008400004EB11610912A4EB0121C8B201F048FBCD
:1008500001F0B0FB01F076FBA12001F041FB01F0BB
:10086000A9FB002001F010FB064601F087FB304693
:1008700070BD2DE9F04105460E461746002409E0FB
:10088000E20026FA02F2D1B22A1990B200F006F87C
:10089000601CC4B2BC42F3DBBDE8F08170B5044615
:1008A0000E4601F04FFB2546E11704EB11610912DA
:1008B000A02202EB4101C8B201F012FB01F07AFB69
:1008C000E11704EB11610912A4EB0121C8B201F098
:1008D00007FB01F06FFB304601F002FB01F06AFB01
:1008E00001F04CFB0A2003F071FE70BD00BFFEE773
:1008F000704708B548F230404FF4F07305220021EC
:100900000090084601F0C6FC48F2304005239A01E9
:1009100000210090084601F0BDFC48F230404FF441
:10092000F0734FF4A072591F0090002001F0B2FC48
:1009300048F230404FF4F0734FF4A0720021009061
:10094000501F01F0A7FC48F230404FF4F0735222E0
:1009500000210090512001F09DFC48F230404FF4FE
:10096000F073A022002100909F2001F093FC48F238
:1009700030404FF4F073ED2200210090EC2001F0A4
:1009800089FC48F230407C234FF4A0727B21009018
:10099000002001F07FFC48F23040F3234FF4A072B6
:1009A000F2210090002001F075FC48F230404FF435
:1009B000B5734FF4A072591E0090002001F06AFC3C
:1009C00008BD10B5022000F0A5F910BD70B50446B1
:1009D000B3F5804F13D1D1E9000540EA05108D68C9
:1009E00040EA05208D6928438D8940EA054054F886
:1009F0002250064E3540284344F8220003E06FF0B1
:100A0000704044F82200002070BD00000000F0CFCC
:100A100030B50246086852F8200020F001000C684A
:100A200042F824008868082801D1402300E0002310
:100A3000486818438C682043CC6820430C692043E5
:100A40004C6920438C692043CC6920430C6A2043C5
:100A50004C6A20438C6A2043CC6A20430C6B2043B1
:100A60004C6B20430C6852F82440044D2C4020432A
:100A70000C6842F82400002030BD00008000F0FF28
:100A800010B50346D1E9000440EA04108C6840EA3E
:100A900004208C8940EA0444088A401E44EA005439
:100AA000087D801E44EA00608C692043541C53F882
:100AB000244004F040442043541C43F82400002008
:100AC00010BD000070B50446002594F821000228EE
:100AD00003D00420A0630125C1E02068006820F055
:100AE0000E00216808602068006820F0010021687D
:100AF00008605C492068884252D95A497839206890
:100B0000884201D1012047E0564964392068884273
:100B100001D1102040E0534950392068884201D16A
:100B2000801539E04F493C392068884201D1801452
:100B300032E04C4928392068884202D14FF4803095
:100B40002AE0484914392068884202D14FF48010C5
:100B500022E044492068884201D140041CE0424917
:100B60002068884201D1012016E03F4914312068F5
:100B7000884201D110200FE03B492831206888428B
:100B800001D1801508E038493C312068884201D104
:100B9000801401E04FF480303349091F086051E0B0
:100BA000304978392068884201D1012047E02D4939
:100BB00064392068884201D1102040E02949503929
:100BC0002068884201D1801539E026493C392068E7
:100BD000884201D1801432E02249283920688842B5
:100BE00002D14FF480302AE01E491439206888422F
:100BF00002D14FF4801022E01A492068884201D1C6
:100C000040041CE018492068884201D1012016E008
:100C1000154914312068884201D110200FE0124993
:100C200028312068884201D1801508E00E493C3106
:100C30002068884201D1801401E04FF480300949D6
:100C400080394860012084F8210000BF002084F82A
:100C5000200000BF606B10B12046616B88472846BA
:100C600070BD0000800002400804024010B5044638
:100C7000022C43D122480068012814D100202149C8
:100C800008600121204800F0F3F930B91F480078CE
:100C900000F002001D49087005E01C48007840F093
:100CA00001001A49087016480068022819D101216C
:100CB000154800F0DDF930B91448007800F0010063
:100CC0001249087005E01148007840F002000F4911
:100CD00008700E480078401C0D4908700120094931
:100CE000086007480068012805D105480068401CD5
:100CF0000349086002E001200149086010BD0000BE
:100D00000C010020140100200010014010010020FF
:100D10001101002010B5044604480068204020B1AD
:100D2000024804602046FFF7A1FF10BD14040140F3
:100D30002DE9F847024600239C467BE14FF001086D
:100D400008FA03F4D1F8008008EA0400A0427DD13B
:100D5000DFF8F4A2D1F80480A8EB0A09D0453AD014
:100D600014DCB8F1030F50D009DCB8F1000F31D01A
:100D7000B8F1010F1CD0B8F1020F49D120E0B8F151
:100D8000110F18D0B8F1120F42D11EE0B9F5881F2B
:100D900025D006DCB9F5803F20D0B9F5801F37D1CA
:100DA0001AE0B9F5001F18D0B9F5041F30D117E0CB
:100DB000D1F80CC02DE0D1F80C8008F1040C28E02B
:100DC000D1F80C8008F1080C23E0D1F80C8008F170
:100DD0000C0C1EE000BF00BF00BF00BF00BF00BF83
:100DE000D1F80880B8F1000F02D14FF0040C0BE0ED
:100DF000D1F80880B8F1010F03D14FF0080C14614D
:100E000002E04FF0080C546103E04FF0000C00E0EA
:100E100000BF00BFFF2801D8904601E002F104089E
:100E20004646FF2802D84FEA830803E0A3F10808EA
:100E30004FEA88084746D6F800804FF00F0909FAB4
:100E400007F928EA09080CFA07F900E07AE048EA0D
:100E50000908C6F80080D1F8048008F08058B8F17D
:100E6000805F6FD100BFDFF8E481D8F8188048F0C8
:100E70000108DFF8D891C9F81880C846D8F818805A
:100E800008F00108CDF8008000BF00BF4FEAB93874
:100E90004FEA930958F829504FEA83784FEA1879B6
:100EA0004FF00F0808FA09F825EA0805DFF8A081D5
:100EB000424502D14FF0000824E0DFF89881424516
:100EC00002D14FF001081DE0DFF88C81424502D1CC
:100ED0004FF0020816E0DFF88481424502D14FF05E
:100EE00003080FE0DFF87881424502D14FF0040893
:100EF00008E0DFF87081424502D14FF0050801E0BB
:100F00004FF006084FEA83794FEA197908FA09F891
:100F100048EA0505DFF850814FEA930948F829505F
:100F2000D1F8048008F48038B8F5803F0BD1DFF8A1
:100F30003C81D8F8008048EA0008DFF83091C9F811
:100F400000800AE075E0DFF82481D8F8008028EA04
:100F50000008DFF81891C9F80080D1F8048008F47F
:100F60000038B8F5003F0ED1DFF8008108F1040821
:100F7000D8F8008048EA0008DFF8F09009F1040989
:100F8000C9F800800DE0DFF8E48008F10408D8F823
:100F9000008028EA0008DFF8D49009F10409C9F8B4
:100FA0000080D1F8048008F48018B8F5801F0ED1B5
:100FB000DFF8B88008F10808D8F8008048EA00088F
:100FC000DFF8A89009F10809C9F800800DE0DFF802
:100FD0009C8008F10808D8F8008028EA0008DFF8AB
:100FE0008C9009F10809C9F80080D1F8048008F450
:100FF0000018B8F5001F0ED1DFF8708008F10C085A
:10100000D8F8008048EA0008DFF8609009F10C0980
:10101000C9F800800DE0DFF8548008F10C08D8F81A
:10102000008028EA0008DFF8449009F10C09C9F8AB
:1010300000805B1CD1F8008028FA03F8B8F1000F9B
:101040007FF47CAEBDE8F88700001110001002406C
:1010500000080140000C0140001001400014014054
:1010600000180140001C014008000140000401403C
:10107000024693680B400BB1012000E0002070474E
:101080000AB1016101E00B04036170470148006887
:1010900070470000080000200348006803490978F1
:1010A0000844014908607047080000201000002033
:1010B00010B50848006840F0100006490860052097
:1010C00000F080F80F2000F007F800F02BF8002067
:1010D00010BD00000020024070B504460E480078A4
:1010E0004FF47A71B1FBF0F00C490968B1FBF0F5EF
:1010F000284600F085FC08B1012070BD102C07D2F5
:1011000000222146501E00F01EF80548046001E050
:101110000120F2E70020F0E710000020040000208A
:101120000C000020704701460846002809DB00F04B
:101130001F0301229A4043099B0003F1E023C3F8F7
:10114000002100BF70472DE9F05F80460D4616462E
:10115000002703F0A9F8074639462A46334601F02E
:101160000700C0F1070ABAF1040F02D94FF0040AD0
:1011700001E0C0F1070AD14600F1040ABAF1070FF5
:1011800002D24FF0000A01E0A0F1030AD4464FF06A
:10119000010A0AFA09FAAAF1010A0AEA020A0AFA93
:1011A0000CFA4FF0010B0BFA0CFBABF1010B0BEA45
:1011B000030B4AEA0B042146404603F07DF8BDE8E4
:1011C000F09F000000BF00F00702064B19684FF6C1
:1011D000FF031940044B0B4343EA0221014B196002
:1011E00000BF70470CED00E00000FA0570B5044642
:1011F0000D460CB9012070BD5A48006800F0070088
:10120000A8420ED25748006820F0070028435549ED
:1012100008600846006800F00700A84201D00120DD
:10122000E9E7207800F0020002281DD1207800F0C4
:101230000400042805D14C48406840F4E0604A4965
:101240004860207800F00800082805D1464840682A
:1012500040F46050444948604348406820F0F00042
:10126000A168084340494860207800F0010078B345
:101270006068012806D13C48006800F4003090B94D
:101280000120B8E76068022806D13748006800F0FE
:10129000007040B90120AEE73348006800F002005A
:1012A00008B90120A7E73048406820F003006168D2
:1012B00008432D494860FFF7E9FE064609E0FFF7BD
:1012C000E5FE801B41F28831884202D9032092E773
:1012D00007E02548406800F00C006168B0EB810F22
:1012E000EDD12048006800F00700A8420ED91D4843
:1012F000006820F0070028431A4908600846006883
:1013000000F00700A84201D0012074E7207800F027
:101310000400042807D11448406820F4E060E16824
:10132000084311494860207800F00800082808D1D7
:101330000D48406820F46050216940EAC1000A4924
:10134000486000F03FF808494968C1F30311074AB3
:10135000515CC8400649086006480068FFF7BCFEBB
:10136000002048E700200240001002409856000884
:10137000040000200C0000200148006870470000B5
:101380000400002000B5FFF7F7FF04494968C1F3E6
:101390000221034A515CC84000BD00000010024019
:1013A000A856000800B5FFF7E7FF04494968C1F3F4
:1013B000C221034A515CC84000BD00000010024039
:1013C000A8560008F0B585B00FF26C0C9CE8E01050
:1013D00001A8A0E8E0101CA52D68009500210022BE
:1013E000002300240020194D696801F00C05F5B1B7
:1013F000042D02D0082D19D101E0154819E001ADE6
:10140000C1F38346AC5D01F4803555B10F4D6D6875
:10141000C5F340451DF805200D4D6543B5FBF2F3BE
:1014200002E00C4D04FB05F3184602E000BF08483B
:1014300000BF00BF05B0F0BD0203040506070809A0
:101440000A0B0C0D0E0F10100102000000100240DC
:1014500000127A0000093D00F8B504460CB90120DD
:10146000F8BD207800F00100002878D0F8484068E6
:1014700000F00C0004280CD0F548406800F00C0087
:10148000082811D1F248406800F48030B0F5803F60
:101490000AD1EF48006800F4003000285FD060688F
:1014A00000285CD10120DBE700BF6068B0F5803F19
:1014B00006D1E748006840F48030E549086028E03C
:1014C000606858B9E248006820F48030E04908605C
:1014D0000846006820F4802008601AE06068B0F5D3
:1014E000A02F0BD1DA48006840F48020D84908606A
:1014F0000846006840F4803008600AE0D44800687C
:1015000020F48030D24908600846006820F480202A
:10151000086000BF606888B1FFF7B8FD054606E0C7
:10152000FFF7B4FD401B642801D9032098E7C848A1
:10153000006800F400300028F2D010E0FFF7A6FDAC
:10154000054606E0FFF7A2FD401B642801D90320F1
:1015500086E7BF48006800F400300028F2D1207808
:1015600000F00200022857D1B948406800F00C0092
:1015700050B1B748406800F00C00082818D1B448B2
:10158000406800F4803098B9B148006800F002006B
:1015900020B12069012801D0012061E7AC48006832
:1015A00020F0F800616940EAC100A949086033E011
:1015B0002069E8B10120A7490860FFF767FD0546EB
:1015C00006E0FFF763FD401B022801D9032047E72F
:1015D0009F48006800F002000028F2D09C48006894
:1015E00020F0F800616940EAC1009949086013E001
:1015F000002098490860FFF749FD054606E0FFF71F
:1016000045FD401B022801D9032029E790480068C6
:1016100000F002000028F2D1207800F0080008282D
:101620002DD1A069B8B101208B490860FFF72EFDCC
:10163000054606E0FFF72AFD401B022801D90320DA
:101640000EE78348406A00F002000028F2D0012033
:1016500001F0A8F913E000207F490860FFF716FDAC
:10166000054606E0FFF712FD401B022801D90320C2
:10167000F6E67748406A00F002000028F2D12078B0
:1016800000F00400042873D100277148C06900F0FD
:10169000805070B900BF6E48C06940F080506C49FE
:1016A000C8610846C06900F08050009000BF00BFCC
:1016B00001276A48006800F48070B0B96748006884
:1016C00040F4807065490860FFF7E0FC054606E0DD
:1016D000FFF7DCFC401B642801D90320C0E65F480B
:1016E000006800F480700028F2D000BFE068012894
:1016F00006D15748006A40F001005549086227E0CA
:10170000E06858B95248006A20F001005049086268
:101710000846006A20F00400086219E0E068052825
:101720000BD14B48006A40F0040049490862084662
:10173000006A40F0010008620AE04548006A20F0B3
:101740000100434908620846006A20F0040008626C
:1017500000BFE068A0B1FFF799FC054609E0FFF77C
:1017600095FC401B41F28831884202D9032077E67C
:1017700022E03748006A00F002000028EFD012E0B3
:10178000FFF784FC054608E0FFF780FC401B41F2B0
:101790008831884201D9032062E62D48006A00F0B2
:1017A00002000028F0D1012F05D12948C06920F09E
:1017B00080502749C86100BFE069C8B32448406829
:1017C00000F00C00082860D0E069022848D1002011
:1017D00020490866FFF75AFC054606E0FFF756FC6D
:1017E000401B022801D903203AE61948006800F09E
:1017F00000700028F2D1206AB0F5803F07D114486C
:10180000406820F40030A168084311494860D4E9D9
:10181000080108430E49496821F4741108430C4932
:10182000486001200B490866FFF730FC054607E0D9
:101830003DE0FFF72BFC401B022801D903200FE6F7
:101840000348006800F000700028F2D02FE000008C
:1018500000100240000042428004424200700040FA
:10186000002014490866FFF711FC054606E0FFF763
:101870000DFC401B022801D90320F1E50E48006849
:1018800000F000700028F2D111E0E069012800D1D9
:10189000E6E50948466806F48031206A814204D1B1
:1018A00006F47011606A814201D00120D8E5002061
:1018B000D6E50000000042420010024070B5044628
:1018C0000E4615460CB9012070BD94F8410028B9A8
:1018D000002084F84000204600F020F804F10801C0
:1018E0002068FFF795F83146A2682068FFF7C8F82E
:1018F0002946236BD4E90102FFF768F8A168206844
:1019000050F8210040F00100A268216841F822004F
:10191000012084F841000020D6E7000010B586B011
:10192000044600BF2848406940F480702649486159
:101930000846406900F48070019000BF00BF00BFFE
:101940000846806940F0200088610846806900F000
:101950002000019000BF00BF00BF0846806940F032
:10196000400088610846806900F04000019000BF97
:1019700000BF00BF0846806940F480708861084657
:10198000806900F48070019000BF00BF4CF233709A
:10199000029002200390012004900320059002A9E8
:1019A0000A48FFF7C5F94FF68070029002A908486F
:1019B000FFF7BEF941F20100029002A90548FFF7C6
:1019C000B7F906B010BD000000100240001401403D
:1019D0000018014000200140042808D14FF0E02108
:1019E000096941F004014FF0E022116107E04FF076
:1019F000E021096921F004014FF0E02211617047F4
:101A000070B504462546681EB0F1807F01D30120E1
:101A10000FE0681E4FF0E02148610F214FF0FF30CA
:101A200002F04AFC00204FF0E021886107200861A5
:101A3000002070BD704701460022002391F8392034
:101A400091F83A3042EA0300704700002DE9F04770
:101A50000446206805682068C668206847694FF01A
:101A60000008C14605F00F08B8F1000F0AD105F0D3
:101A7000200038B106F0200020B1204602F050FAD4
:101A8000BDE8F087B8F1000F6DD007F0010018B97C
:101A900006F49070002866D005F0010030B106F41D
:101AA000807018B1E06B40F00100E06305F00400C5
:101AB00030B107F0010018B1E06B40F00200E063C4
:101AC00005F0020030B107F0010018B1E06B40F002
:101AD0000400E06305F0080030B107F0010018B120
:101AE000E06B40F00800E063E06B68B305F02000B5
:101AF00028B106F0200010B1204602F011FA20684B
:101B00004069C0F38019E06B00F0080010B9B9F12A
:101B1000000F22D0204602F0E3F92068406900F06F
:101B20004000B0B12068406920F040002168486161
:101B3000606B50B11748616B4863606BFEF7C2FF82
:101B400010B1606B416B88470CE02046FFF772FFD5
:101B500008E02046FFF76EFF04E02046FFF76AFF2B
:101B60000020E0638CE705F0800030B106F08000D3
:101B700018B1204602F0F8FA82E705F0400030B1D3
:101B800006F0400018B1204602F0BAF978E700BF2D
:101B900076E70000CD3E000810B504460CB90120E0
:101BA00010BDA06900B100E000BF94F8390028B969
:101BB000002084F83800204600F028F8242084F81B
:101BC00039002068C06820F400502168C8602046B1
:101BD00002F0FAF92068006920F490402168086159
:101BE0002068406920F02A00216848612068C068A8
:101BF00040F400502168C8600020E063202084F891
:101C0000390084F83A000020CAE7000010B586B019
:101C100004461F492068884237D100BF1D488069AB
:101C200040F004001B4988610846806900F0040008
:101C3000019000BF00BF00BF0846806940F48040AB
:101C400088610846806900F48040019000BF00BFB1
:101C50004815029002200390012004900320059073
:101C600002A90D48FFF764F84FF48060029000204D
:101C7000039002A90848FFF75BF82520FFF753FA05
:101C8000032211462520FFF75EFA06B010BD0000C2
:101C900000380140001002400008014010B5034622
:101CA00093F83A0020282FD101B10AB9012010BDC4
:101CB00000BF93F83800012801D10220F7E7012086
:101CC00083F8380000BF99629A85DA850020D863CE
:101CD000222083F83A0000BF002083F8380000BFBC
:101CE0001868C06840F480701C68E060186840693B
:101CF00040F001001C6860611868C06840F0200076
:101D00001C68E0600020D2E70220D0E71D4A01688D
:101D1000914236D11C49098801F4004189BB1A4916
:101D2000098801F4804171B1184909780A2903D062
:101D30000021154A118024E01349098841F400412B
:101D4000114A11801DE0114909780D2906D10E496B
:101D5000098841F480410C4A118012E00B4909784E
:101D6000094A1288C2F30D02094B995406490988A1
:101D7000491C054A118011460988C72901DD002147
:101D800011807047003801401C0100201E01002016
:101D9000F0010020704700BFFEE7000010B50020F2
:101DA0000A49086000F050FE00200949C1F89C0172
:101DB000022002F017FC012004490860052002F00F
:101DC00011FC00200249C1F8980110BD9881214200
:101DD0000080214200B585B000BF1948806940F0FD
:101DE0000800174988610846806900F008000090E3
:101DF00000BF00BF00BF0846806940F0080088614E
:101E00000846806900F00800009000BF00BF402035
:101E100001900120029003900320049001A9094839
:101E2000FEF786FF8020019001A90648FEF780FF9B
:101E30000120054908600549C1F8980105B000BDB9
:101E400000100240000C01409C8121420080214290
:101E500010B500200A49086000F0F6FD012009498C
:101E6000C1F89C01022002F0BDFB0120044908607A
:101E7000052002F0B7FB00200249C1F8980110BD0F
:101E8000988121420080214270B50546002400F06F
:101E9000CBFD002616E000200F490860022002F06A
:101EA000A1FB01200D49C1F898016006040E0A4803
:101EB0007C38006808B1601CC4B2012002F092FBBB
:101EC000701CC6B2082EE6DB15B9FFF7C1FF01E0B2
:101ED000FFF764FF204670BD9881214200802142B7
:101EE00070B5044600F0B0FD0020144908600025DC
:101EF00020E004F08000002804DD01200F49091DC6
:101F0000086003E000200D49091D08606006040E0A
:101F1000022002F067FB012008490860022002F05D
:101F200061FB00200649C1F89801022002F05AFB2B
:101F3000681CC5B2082DDCDB70BD00009881214211
:101F40000080214210B500F07FFD012009490860A2
:101F50000949C1F89801052002F044FB0020054919
:101F60000860062002F03EFB00200349C1F89801FA
:101F700010BD00009C8121420080214210B500F07C
:101F800063FD0020094908600949C1F89C0101204E
:101F900006490860062002F025FB01200449C1F82B
:101FA0009C01062002F01EFB10BD0000988121421A
:101FB0000080214210B5002400F036FD01200E49BA
:101FC000086002F00FFB01200C49C1F8980102F0F3
:101FD00009FB07E0601CC4B2FA2C03DDFFF7CEFF5B
:101FE000012010BD0448803800680028F2D1024961
:101FF000091F086000BFF4E79C8121420080214254
:1020000000B585B000BF1748806940F0040015494D
:1020100088610846806900F00400009000BF00BF9E
:1020200000BF0846806940F040008861084680692A
:1020300000F04000009000BF00BF1C200190002075
:1020400002900120039001A90748FEF771FE0120CC
:1020500001900220039001A90448FEF769FE05B033
:1020600000BD0000001002400018014000080140BF
:1020700070B506460F484088401E83B20D48008860
:10208000401E82B20021084600F03DF900240CE019
:10209000002504E0304600F0B1FA681C85B205481E
:1020A0004088A842F6DC601C84B202480088A04246
:1020B000EEDC70BD1600002010B504461348847194
:1020C0005CB90821362000F089FA4FF4F0700F490E
:1020D00048804FF4A070088016E02821362000F0D8
:1020E0007DFAB62000F074FA002000F081FA022098
:1020F00000F07EFA3B2000F07BFA4FF4A070034919
:1021000048804FF4F070088010BD000016000020D9
:1021100070B504460D4616462B46224629462046F3
:1021200000F0F1F8304600F069FA70BD2DE9FF4F7C
:1021300084B081468A460020039002900698A0EB66
:1021400009050798A0EB0A06CDF80490CDF800A089
:10215000002D01DD012705E00DB9002702E04FF059
:10216000FF376D42002E02DD4FF0010806E016B980
:102170004FF0000802E04FF0FF387642B54201DD33
:102180002C4600E034464FF0000B21E0009A91B25B
:10219000019A90B200F022F8039828440390029824
:1021A000304402900398A04205DD0398001B039081
:1021B0000198384401900298A04205DD0298001B66
:1021C00002900098404400900BF101001FFA80FB40
:1021D000601C8345DADD08B0BDE8F08F30B50446F9
:1021E0000D462B4622462946204600F08CF8024830
:1021F000008800F003FA30BD120000202DE9F04302
:1022000006460F469046002445460320A0EB4809A9
:102210003CE07A1B91B2321990B2FFF7DFFF3A1B14
:1022200091B2721990B2FFF7D9FF3A1991B27219AF
:1022300090B2FFF7D3FF7A1991B2321990B2FFF73B
:10224000CDFF7A1991B2321B90B2FFF7C7FF3A194E
:1022500091B2721B90B2FFF7C1FF7A1B91B2321B91
:1022600090B2FFF7BBFF3A1B91B2721B90B2FFF71F
:10227000B5FF641CB9F1000F03DAA000801D814492
:1022800004E0601B80000A3081446D1EAC42C0DD5A
:10229000BDE8F0832DE9F04304460D4616461F467F
:1022A000DDF81C80B44201DCBD4201DDBDE8F083F5
:1022B0003B4632462946204600F025F8301B401C9C
:1022C00084B2781B401C85B20BE0A94602E0404670
:1022D00000F094F9B9F10000A9F101011FFA81F9A8
:1022E000F5D1201EA4F101018CB2EED100BFDDE7D3
:1022F00010B50246012000E050430B1EA1F101047D
:10230000E1B2F9D110BD70B504460D462A2000F0A7
:102310005FF92646E11704EB1161C1F30F2000F0CD
:1023200067F9E11704EB11610912A4EB012188B2EE
:1023300000F05EF91646D11702EB1161C1F30F20D0
:1023400000F056F91646D11702EB11610912A2EB03
:10235000012188B200F04CF92B2000F039F92E460B
:10236000E91705EB1161C1F30F2000F041F9E917FE
:1023700005EB11610912A5EB012188B200F038F9D3
:102380001E46D91703EB1161C1F30F2000F030F99D
:102390001E46D91703EB11610912A3EB012188B284
:1023A00000F026F92C2000F013F970BD2DE9F84F4C
:1023B00080460E4617461C46B3462046E31704EBFC
:1023C0005373DB1021464FEAE47C04EB5C7C4FEA5C
:1023D000EC0CA4EBCC0CBCF1000F02D04FF0010CC4
:1023E00001E04FF0000C6344224604EBD27C4FEA3C
:1023F0006C0C03FB0CF3DBB20093A7F12000C7B217
:10240000002556E00C2C07D107EB47002B4901EBC8
:10241000800010F8059013E0102C05D1284800EB3F
:10242000071010F805900BE0182C07D107EBC70038
:10243000244901EB800010F8059001E0BDE8F88F19
:102440004FF0000A2FE009F0800030B11E480288EA
:1024500031464046FFF75CFE07E00A9828B91B4862
:10246000028831464046FFF753FE4FEA49604FEA83
:102470001069701C86B216484088B04200DCDDE767
:10248000A6EB0B00A0420AD15E4608F101001FFA3C
:1024900080F80F480088404500DCCFE706E00AF1ED
:1024A000010000F0FF0ABAF1080FCCDB00BF681C86
:1024B000C5B200988542A5DB00BFBFE7B056000853
:1024C000245B0008146100081200002014000020A2
:1024D000160000202DE9FF4F81B0074691461E46A9
:1024E0000E9D4FF0000A002439E0301B401EC1B29F
:1024F0000A20FFF7FDFEB9FBF0F00A21B0FBF1F274
:1025000001FB1208BAF1000F16D1701EA04213DDB4
:10251000B8F1000F0ED10020AB4605EBDB7149107E
:1025200001FB0471009088B22B4620220299FFF72C
:102530003DFF12E04FF0010A0020AB4605EBDB71D6
:10254000491001FB0471009088B208F13001CAB251
:102550002B460299FFF72AFF00BF601CC4B2B442A9
:10256000C3DB05B0BDE8F08F2DE9F84704460D4602
:1025700090469946DDE9096704F0FF0A08EB04007C
:102580001FFA80F809EB05001FFA80F916E04445B0
:1025900002DB5446A81985B24D4500DB14E000204B
:1025A00000903A78334629462046FFF7FFFE304632
:1025B00006EBD07104EB61018CB27F1C38787E2869
:1025C00002DC38782028E2DA00BFBDE8F887000096
:1025D0000149088070470000FE07006C00B5034603
:1025E0000A461846FFF7F4FF104600F001F800BD58
:1025F00001490880704700000008006C0112024A7F
:102600001180C1B2118070470008006C00B585B020
:1026100000BF1B48806940F00800194988610846DE
:10262000806900F00800009000BF00BF00BF0846AE
:10263000806940F0400088610846806900F04000F1
:10264000009000BF00BF2020019001200290039065
:102650000320049001A90B48FEF76AFB202001909B
:1026600001A90948FEF764FB012220210548FEF775
:1026700007FD012220210448FEF702FD05B000BD40
:1026800000100240000C014000180140F0B58DB070
:102690006548006B01280BD06348406B012807D0C8
:1026A0006148806B012803D05F48C06B01287DD151
:1026B0001D2001F0DBFD00205C4908604FF6FF7033
:1026C0004FF4F0734FF4A072002100900846FFF71A
:1026D000E1FD57A01821CDE9001058484388028831
:1026E00078211E20FFF740FF5548066800270FE0BD
:1026F0000A2196FBF1F201FB126000F13001CBB22E
:1027000039467F1C0AAA53540A2196FBF1F600BFF2
:10271000002EEDD100200AA9C8550AA8FDF736FD04
:102720000546002006E0291A491E0AAA515C07AA9C
:102730001154401CA842F6DB002007A9485541A0CF
:102740001821CDE900103D48438802884FF4967166
:102750000A20FFF709FF07A81821CDE90010374824
:10276000438802884FF49671F520FFF7FDFE00BF05
:102770003948806940F00800374988610846806917
:1027800000F00800029000BF00BF881503900120F0
:10279000049005900320069003A93048FEF7C8FA7C
:1027A000012211022D48FEF76BFC00E00AE04FF415
:1027B0007A7001F00BFF00224FF480712748FEF77A
:1027C0005FFC00BF002417E01748203050F82410A9
:1027D000103040F82410203850F82410103040F801
:1027E0002410203850F82410103040F82410002015
:1027F0000D4941F82400641C042CE5DB0121184A32
:10280000184B1B6852F82300C21700EB927292100B
:10281000A0EB8202044B43F8221012480068401CCF
:10282000104908600DB0F0BD70010020BC00002010
:1028300047414D45204F56455200000016000020EC
:1028400020000020756C74696D6174652073636F7E
:1028500072652069733A000000100240000C0140CC
:1028600024000020B800002070B588B01D2001F0C1
:10287000FDFC00202E4908604FF6FF704FF4F07306
:102880004FF4A072002100900846FFF703FD29A035
:102890001821CDE900102A484388028878211E209B
:1028A000FFF762FE2748056800260FE00A2195FB26
:1028B000F1F201FB125000F13001CBB23146761C2F
:1028C00005AA53540A2195FBF1F500BF002DEDD167
:1028D000002005A9885505A8FDF758FC04460020EE
:1028E00006E0211A491E05AA515C02AA1154401C97
:1028F000A042F6DB002002A9085513A01821CDE95B
:1029000000100F48438802884FF496710A20FFF7A1
:102910002BFE02A81821CDE900100948438802883F
:102920004FF49671F520FFF71FFE08B070BD000050
:10293000BC00002047414D45204F56455200000045
:102940001600002020000020756C74696D617465AC
:102950002073636F72652069733A000000BFFEE761
:1029600000B585B000BF0C48806940F010000A49EE
:1029700088610846806900F01000009000BF00BF29
:1029800004200190012002900220039001A9034835
:10299000FEF7CEF905B000BD001002400010014066
:1029A0007047704708B508490968C9084FF47A723A
:1029B000B1FBF2F14143009100BF00BF00994A1EF4
:1029C00000920029F9D108BD0400002000B585B0AF
:1029D00000BF1248806940F0100010498861084625
:1029E000806900F01000009000BF00BF012001903E
:1029F00000200290039001A90948FEF799F90220EE
:102A00000190084802900220039001A90448FEF7B3
:102A10008FF90720FEF787FB05B000BD00100240CC
:102A200000100140000011101FB580200090002010
:102A30000190012002900320039069460148FEF7AF
:102A400077F91FBD000C01401FB5802000900120C8
:102A5000019002900320039069460248FEF768F94E
:102A60001FBD0000000C014030B5A1B04022174945
:102A700011A8FDF779FB40221449403101A8FDF768
:102A800073FB00241EE0002519E0114800EB041040
:102A900050F82500012805D111A901EB041151F8C6
:102AA000250080470A4800EB041050F8250028B99B
:102AB00001A901EB041151F8250080476D1C042D7C
:102AC000E3DB641C042CDEDB21B030BDC89F0008B2
:102AD0007001002010B503480068012801D1FFF7FC
:102AE000C3FF10BDBC000020704710B5FEF7D4FA3C
:102AF00010BD000010B504460420FEF76DFF01482C
:102B0000046010BD1801002030B58FB005460024C8
:102B100001200590000406900020079002200C90F0
:102B2000C1030D910E9505A8FEF796FC04460CB165
:102B300000BFFEE70F2000900220019000200290CD
:102B40004FF4806003900020049002216846FEF755
:102B50004DFB04460CB100BFFEE70FB030BD0000D6
:102B60001148006840F001000F49086008464068BD
:102B70000E4908400C494860084600680C49084066
:102B8000094908600846006820F48020086008466B
:102B9000406820F4FE0048604FF41F008860C803BE
:102BA0000449086070470000001002400000FFF870
:102BB000FFFFF6FE08ED00E000B593B000BF264829
:102BC000806940F00800244988610846806900F067
:102BD0000800009000BF00BF01200F9010901190DE
:102BE000032012900FA91D48FEF7A2F84FF02040D5
:102BF0001B4908601B48486006208860002118486F
:102C0000C16001611021416100218161C1614162A6
:102C10004FF4805181620021C1624FF48041016311
:102C20000021416381630F200890002009903C201F
:102C30000A9000200E90049009200190002002903C
:102C4000082003900020079001AA08A90448FEF775
:102C500035FE13B000BD000000100240000C014022
:102C600028010020040100A010B5FFF7A5FF3220C5
:102C700001F0ACFCDA20FFF7ABFC7848008878491B
:102C80008880764800884FF6FF7101EA0020744979
:102C90008880DB20FFF79CFC714880886F49098899
:102CA00008436F498880084680886C490988084332
:102CB0006B498880084681886AA001F0C7FAE02045
:102CC000FFF786FC0020FFF793FC1320FFF790FC32
:102CD0001820FFF78DFC0420FFF78AFC0F20FFF778
:102CE00087FC0620FFF784FC3A20FFF781FC562082
:102CF000FFF77EFC4D20FFF77BFC0320FFF778FCFD
:102D00000A20FFF775FC0620FFF772FC3020FFF762
:102D10006FFC3E20FFF76CFC0F20FFF769FCE12001
:102D2000FFF756FC0020FFF763FC1320FFF760FC61
:102D30001820FFF75DFC0120FFF75AFC1120FFF778
:102D400057FC0620FFF754FC3820FFF751FC3420D5
:102D5000FFF74EFC4D20FFF74BFC0620FFF748FC29
:102D60000D20FFF745FC0B20FFF742FC3120FFF759
:102D70003FFC3720FFF73CFC0F20FFF739FCC02059
:102D8000FFF726FC1820FFF733FC1720FFF730FC75
:102D9000C120FFF71DFC4120FFF72AFCC520FFF7EB
:102DA00017FC0020FFF724FC1A20FFF721FC8020ED
:102DB000FFF71EFC3620FFF70BFC0820FFF718FC7E
:102DC0003A20FFF705FC5520FFF712FCB020FFF773
:102DD000FFFB0020FFF70CFCB120FFF7F9FBA02060
:102DE000FFF706FCB420FFF7F3FB0220FFF700FC1F
:102DF000B620FFF7EDFB0020FFF7FAFB2220FFF7DC
:102E0000F7FB3B20FFF7F4FBE920FFF7E1FB002095
:102E1000FFF7EEFBF720FFF7DBFBA920FFF7E8FB4E
:102E20005120FFF7E5FB2C20FFF7E2FB8220FFF7A4
:102E3000DFFB1120FFF7CCFB782001F0C7FB292036
:102E4000FFF7C6FB2C20FFF7C3FB0020FFF734F988
:102E50004FF6FF70FFF70CF910BD00000008006C82
:102E600016000020204C43442049443A25780D0A9E
:102E70000000000010B50C48006800F0010088B1A7
:102E8000FFF704FCFFF726FE0848006808B9012098
:102E900000E00020054908600348006820F00100B8
:102EA0000149086010BD00001004004094812142D7
:102EB0001548C06940F002001349C86141F61F403F
:102EC0001249086012480068401E091D0860104839
:102ED0000068B0F5FA6F05DD0D480068A0F57A705E
:102EE0000B49086009481C38006840F00100074998
:102EF0001C39086005482838006840F00100034983
:102F00002839086070470000001002402804004083
:102F1000000000202DE9FC5F04460D4617461E46C2
:102F2000DDE90EABDDE90C894FF4784057490880A4
:102F300057A01021CDE90010564843880288A021EF
:102F40002820FFF711FB54A01021CDE900105148B3
:102F500043880288A0217820FFF706FB4FA01021AC
:102F6000CDE900104B4843880288B4212820FFF7A0
:102F7000FBFA4BA01021CDE9001046484388028897
:102F8000B4217820FFF7F0FA46A01021CDE9001017
:102F9000404843880288C8212820FFF7E5FA42A06C
:102FA0001021CDE900103B4843880288C8217820D1
:102FB000FFF7DAFA3DA01021CDE90010354843882B
:102FC0000288DC212820FFF7CFFA39A01021CDE9B3
:102FD0000010304843880288DC217820FFF7C4FACB
:102FE00034A01021CDE900102A4843880288F0213E
:102FF0002820FFF7B9FA102004232246A0210090D0
:103000004020FFF767FA102004232A46A0210090F1
:103010009020FFF75FFA102004233A46B421009075
:103020004020FFF757FA102004233246B4210090C5
:103030009020FFF74FFA102004234246C821009049
:103040004020FFF747FA102004234A46C821009089
:103050009020FFF73FFA102004235246DC21009015
:103060004020FFF737FA102004235A46DC21009055
:103070009020FFF72FFA102003230090F02160200A
:10308000109AFFF727FABDE8FC9F0000120000200D
:1030900078313A001600002079313A0078323A004F
:1030A00079323A0078333A0079333A0078343A008A
:1030B00079343A006661632069733A0000B597B0CD
:1030C000002012900B9012901F20FE4908804FF6AE
:1030D000FF70FD490880FEF7CBFF4FF47840F949B7
:1030E00008804FF6FF70FEF7C3FF0020F549088007
:1030F000F648006810216423A022CDE900102821A1
:103100000846FFF731FA4FF478421421084600F0E0
:1031100003FC0020EE4988868863D0E3EC484068D1
:103120000A9001200A998847E94890F8340000F095
:10313000C00040287AD100200B90E548808E20F016
:103140004000E34988860846818913AA129822F82C
:103150002010DF48018C129802EB80004180129809
:10316000401CC0B212901298012806D0022815D037
:10317000032829D0042810D141E04FF6FF72142112
:10318000084600F0C9FBD3480088143880B24FF4D9
:10319000784214210A9000F0BFFB80E3CD480088FC
:1031A000143880B24FF6FF7214210A9000F0B4FB7D
:1031B000C8484088143880B24FF4784201460A90DB
:1031C000142000F0A9FB6AE3C2484088143880B29A
:1031D0004FF6FF7201460A90142000F09DFBBD4897
:1031E0004088143880B20A90BA480088143880B2F7
:1031F0004FF4784209900A9900F08EFB4FE3BDF836
:103200004C00BDF85010401A0A90002801DB0A98C3
:1032100001E00A9840420F90BDF84E1013A8C088F4
:10322000081A0A90002802DB0A9802E038E30A989C
:1032300040420E900F9840430F900E9840430E90DE
:10324000DDE90E1008440590FDF7EFF8CDE9060121
:1032500002F0FCF9CDE90801FDF721F980B21190E7
:10326000BDF85400BDF85810401A0A90002801DB40
:103270000A9801E00A9840420F9013A84189C0893A
:10328000081A0A90002801DB0A9801E00A984042D7
:103290000E900F9840430F900E9840430E90DDE93A
:1032A0000E1008440590FDF7C0F8CDE9060102F0C4
:1032B000CDF9CDE90801FDF7F2F880B21090109831
:1032C000FDF7AEF809901198FDF7AAF80890099952
:1032D000FCF7EDFF0A90FDF7FBF8CDE90C014FF08C
:1032E00066327D4BDDE90C01FDF706F90AD37B4A16
:1032F0007B4BDDE90C01FDF717F903D3119808B1F9
:103300001098E8BB0020129072484088143880B2B0
:103310000A9070480088143880B24FF6FF72099006
:103320000A9900F0F9FA4FF478421421084600F0A7
:10333000F3FA00226B4BDDE90C01FCF7F6FFCDE957
:103340000801FDF7ACF880B213A90A90C989BDF84D
:10335000582013AB5B89CDE90132CDE90310BDF8EC
:103360005400009013A8C0880990BDF85000089040
:10337000BDF84E000790BDF84C00069007A900E08C
:1033800003E00EC9FFF7C6FD99E2BDF84C00BDF899
:103390005410401A0A90002801DB0A9801E00A98AC
:1033A00040420F90BDF84E1013A84089081A0A90A9
:1033B000002801DB0A9801E00A9840420E900F981D
:1033C00040430F900E9840430E90DDE90E100844E4
:1033D0000590FDF72AF8CDE9060102F037F9CDE9AD
:1033E0000801FDF75CF880B21190BDF85000BDF8FF
:1033F0005810401A0A90002801DB0A9801E00A9848
:1034000040420F9013A8C188C089081A0A9000286A
:1034100001DB0A9801E00A9840420E900F98404361
:103420000F900E9840430E90DDE90E100844059071
:10343000FCF7FBFFCDE9060102F008F9CDE9080130
:10344000FDF72DF880B210901098FCF7E9FF099075
:103450001198FCF7E5FF08900999FCF728FF0A90FE
:10346000FDF736F8CDE90C014FF066321A4BDDE975
:103470000C01FDF741F806D3184A194BDDE90C01A0
:10348000FDF752F854D200201290124840881438A8
:1034900080B20A900F480088143880B24FF6FF724D
:1034A00009900A9900F038FA4FF47842142108463E
:1034B00000F032FA00220B4BDDE90C01FCF735FF7E
:1034C00012E00000120000201400002048A00008B4
:1034D000C0000020160000206666EE3FCDCCCCCCAC
:1034E000CCCCF03F00005940CDE90801FCF7D7FFF4
:1034F00080B213A90A90C989BDF8582013AB5B8923
:10350000CDE90132CDE90310BDF85400009013A8B5
:10351000C0880990BDF850000890BDF84E00079093
:10352000BDF84C00069007A90EC9FFF7F3FCC6E1F1
:10353000BDF85000BDF85410401A0A90002801DB75
:103540000A9801E00A9840420F9013A8C188408968
:10355000081A0A90002801DB0A9801E00A98404204
:103560000E900F9840430F900E9840430E90DDE967
:103570000E1008440590FCF758FFCDE9060102F053
:1035800065F8CDE90801FCF78AFF80B21190BDF81B
:103590004C00BDF85810401A0A90002801DB0A9828
:1035A00001E00A9840420F90BDF84E1013A8C08960
:1035B000081A0A90002801DB0A9801E00A984042A4
:1035C0000E900F9840430F900E9840430E90DDE907
:1035D0000E1008440590FCF728FFCDE9060102F023
:1035E00035F8CDE90801FCF75AFF80B21090109829
:1035F000FCF716FF09901198FCF712FF0890099943
:10360000FCF755FE0A90FCF763FFCDE90C014FF083
:103610006632AD4BDDE90C01FCF76EFF06D3AB4A19
:10362000AB4BDDE90C01FCF77FFF40D2002012908C
:10363000A8484088143880B20A90A64800881438F8
:1036400080B24FF6FF7209900A9900F065F94FF4C5
:1036500078421421084600F05FF900229E4BDDE914
:103660000C01FCF762FECDE90801FCF718FF80B2FF
:1036700013A90A90C989BDF8582013AB5B89CDE91D
:103680000132CDE90310BDF85400009013A8C088A2
:103690000990BDF850000890BDF84E000790BDF8A5
:1036A0004C00069007A90EC9FFF734FC07E1BDF8EE
:1036B0005000BDF84C10401A0890FCF7A8FE0A9084
:1036C0008448008828380890FCF7A1FE09900A99E0
:1036D000FCF7EDFD81498863BDF85000BDF84C1042
:1036E00008440590FCF793FE06907C48806B0146E9
:1036F00005900698FCF7A9FD08907648008806908A
:10370000FCF78EFE07900899FCF799FD4FF0804179
:103710000990FCF7CCFD0A90FCF794FE00B26F49CB
:10372000A1F8400013A84089BDF84E10401A089037
:10373000FCF76DFE0A906748408828380890FCF72F
:1037400066FE09900A99FCF7B2FD6449C86313A8A4
:103750004089BDF84E1008440590FCF758FE0690CD
:103760005E48C06B014605900698FCF76EFD089018
:10377000584840880690FCF753FE07900899FCF7DC
:103780005EFD4FF080410990FCF791FD0A90FCF737
:1037900059FE00B25149A1F842000846806B0890DA
:1037A000FCF750FE0990002801DB099801E0099818
:1037B000404202280DDC4948C06B0890FCF742FEED
:1037C0000A90002801DB0A9801E00A98404202288A
:1037D00042DD002012903F484088143880B20A90A1
:1037E0003C480088143880B24FF6FF7209900A995D
:1037F00000F092F84FF478421421084600F08CF85B
:1038000037A01021CDE90010324840880A90314895
:103810000088099002461A2128200A9BFEF7A4FE80
:103820002E4890F8440008B9012000E000202B4900
:1038300081F84400084690F8440030B190202D49AA
:103840000870D0202C49087005E0D0202949087064
:1038500090202949087032E01F20284908804FF63F
:10386000FF70FEF705FC26A01021CDE900101948D5
:1038700040880A9017480088099002466E2123204C
:103880000A9BFEF771FE4FF47A7000F09FFE00F085
:1038900037FA4FF6FF70FEF7EBFB17B000BD00BF25
:1038A0000A2000F093FE0B98401C80B20B900B98FE
:1038B000B0F57A7F02DD00F067F801E000BF2DE48B
:1038C00000BF00BFE9E700006666EE3FCDCCCCCC80
:1038D000CCCCF03F1600002000005940C000002072
:1038E0005450204E65656420726561646A75737416
:1038F0002100000008010020090100201200002022
:10390000546F7563682053637265656E2041646A05
:10391000757374204F4B210070B504460D46164652
:103920001848068004F10D018AB2193988B22B4675
:103930002946FEF7FBFB05F10D0083B2193881B271
:1039400022462046FEF7F2FB6A1C91B2621C90B23E
:10395000FEF744FC6A1C91B2621E90B2FEF73EFC78
:103960006A1E91B2621C90B2FEF738FC6A1E91B2D8
:10397000621E90B2FEF732FC062229462046FEF770
:103980003DFC70BD1200002070B5D520FCF745FF4E
:1039900004460A2C44D10421C820FCF728FF044621
:1039A0002046FCF734FD05461E49FCF780FC1E4905
:1039B00088630421CC20FCF71AFF04462046FCF75C
:1039C00026FD05461749FCF772FC1749C86302211A
:1039D000D020FCF70CFF00B21349A1F840000221EF
:1039E000D220FCF704FF00B20F49A1F84200D42016
:1039F000FCF713FF0C4981F84400084690F8440096
:103A000030B1902009490870D0200949087005E0BC
:103A1000D02006490870902005490870012070BD2B
:103A20000020FCE720BCBE4CC000002008010020A4
:103A30000901002000B585B000BF2D48806940F025
:103A400008002B4988610846806900F00800009052
:103A500000BF00BF00BF0846806940F08000886159
:103A60000846806900F08000009000BF00BF02207F
:103A700001900120029003900320049001A91D48A9
:103A8000FDF756F9042001900020029001A9194881
:103A9000FDF74EF94FF4206001900120029001A93A
:103AA0001548FDF745F94FF4806001900020029021
:103AB0000120039001A91048FDF73AF90F49A1F13F
:103AC000140000F0A5F8FCF78EFEFFF75DFF10B1C3
:103AD000002005B000BD4FF6FF70FEF7C9FAFFF7F2
:103AE000EDFA00F00DF9FFF74FFF0120F1E70000BC
:103AF00000100240000C0140001C0140E0000020CA
:103B000070B506460025002400201E4908601E49A5
:103B1000C1F8A4011D490860304600F0B1F9062043
:103B200000F060FD00201A49C1F88401012000F076
:103B300059FD01201349086000F054FD002014498C
:103B4000C1F8840100BF15E04FF6FF7000EA44049D
:103B500000200C490860012000F044FD01200C49C0
:103B6000C1F8840107487C38006808B1601C84B241
:103B7000681CC5B2102DE7DB241101200349086041
:103B8000204670BD8481214200802342AC812342C3
:103B9000008021422DE9F04194B0804600270024A6
:103BA00006E04046FFF7ACFF2DF81400601C84B21D
:103BB000282CF6DB002416E0601C85B20FE03DF8EF
:103BC00014003DF81510884207DD3DF814603DF8FB
:103BD00015002DF814002DF81560681C85B2282DED
:103BE000EDDB601C84B2272CE6DB0027012404E017
:103BF0003DF814000744601C84B2272CF8DB262013
:103C0000B7FBF0F086B2304614B0BDE8F08100009A
:103C10002DE9F04104460D4607480078FFF7BAFF4A
:103C2000064606480078FFF7B5FF074626802F8036
:103C30000120BDE8F08100000801002009010020FA
:103C40007FB504460D4602A903A8FFF7E1FF06462B
:103C500016B9002004B070BD694601A8FFF7D8FF6F
:103C600006460EB90020F5E7BDF80400BDF80C10BB
:103C7000884206DCBDF80C10BDF8040032308142E9
:103C80000CDBBDF80C00BDF80410884236DCBDF832
:103C90000410BDF80C00323081422FDABDF800006C
:103CA000BDF80810884206DCBDF80810BDF8000019
:103CB000323081420CDBBDF80800BDF800108842AC
:103CC0001CDCBDF80010BDF808003230814215DA66
:103CD000BDF80C10BDF80420881800EBD071C1F3BA
:103CE0004F012180BDF80810BDF80020881800EBB6
:103CF000D071C1F34F0129800120ABE70020A9E773
:103D000070B51B49886B1B49FCF79FFA0546FCF709
:103D100099FB044604222146C820FCF7AAFD144959
:103D2000C86B1449FCF791FA0546FCF78BFB044677
:103D300004222146CC20FCF79CFD0D48B0F9401030
:103D40000222D020FCF795FD0948B0F9421002226A
:103D5000D220FCF78EFD064890F84410D420FCF7E2
:103D60009DFD0A242146D520FCF798FD70BD00007A
:103D7000C000002020BCBE4C2DE9F04104463E4866
:103D80000068002855D12CB13C49A1F11400FFF77F
:103D900057FF3DE03949A1F11400FFF751FFB8B3D7
:103DA00036492039B1F94000FCF731FB0746334969
:103DB00020398889FCF734FB804630482038816BF5
:103DC0004046FCF742FA06463946FCF7E6F9054656
:103DD000FCF751FB294920398881B1F94200FCF7F1
:103DE00016FB074625492039088CFCF719FB80464D
:103DF00022482038C16B4046FCF727FA0646394670
:103E0000FCF7CBF90546FCF736FB1C492039088442
:103E10001A48203890F8340000F0800020BBC02001
:103E2000164920398886084681898182018C01855E
:103E30001AE01248203890F8340000F0800040B1B9
:103E40000E482038808E20F080000C49203988866A
:103E50000AE0002109482038818201854FF6FF7071
:103E600006492039888108840448203890F83400B5
:103E700000F08000BDE8F08128812342E0000020AE
:103E800070B50446002500BF17E004F0800018B1AB
:103E900001200B49086002E0002009490860600623
:103EA000040E002007490860012000F09BFB012060
:103EB0000549C1F88401681CC5B2082DE5DB70BD59
:103EC000A4812342848121420080214270B50546AD
:103ED0006C6A0020E085E0842046FDF7ABFD70BDF4
:103EE0000168C96821F490710268D160016849696C
:103EF00021F0010102685161202180F83A107047D9
:103F000010B504462068C06820F040002168C860F1
:103F1000202084F839002046FDF73CFF002010BD2A
:103F200070B5044694F83A0022284AD1A068B0F54A
:103F3000805F13D1A56A206940B920684068C0F34A
:103F400008002880A06A801CA06219E020684068F0
:103F5000C0B22880A06A401CA06211E0206938B974
:103F600020684068C1B2A26A501CA062117007E0CC
:103F70002068406800F07F01A26A501CA0621170A6
:103F8000E08D401E80B2E085C8B92068C06820F08E
:103F900020002168C8602068C06820F48070216813
:103FA000C8602068406920F0010021684861202035
:103FB00084F83A002046FDF7A9FE002070BD0020DD
:103FC000FCE70220FAE7000070B5044621680969A1
:103FD00021F44051E2681143226811612269A1680D
:103FE0001143626941EA02052168C96841F20C6225
:103FF000914329432268D1602168496921F44071C5
:10400000A269114322685161564A2168914254D1F4
:10401000FDF7C8F900EBC00101EB001162689200E6
:10402000B1FBF2F100EBC00202EB001263689B00EF
:10403000B2FBF3F26423B2FBF3F202EBC20303EB35
:104040000212A1EB8201322202EB01116422B1FBC8
:10405000F2F101F0F00100EBC00202EB0012636824
:104060009B00B2FBF3F26423B2FBF3F201EB02120A
:1040700000EBC00101EB001163689B00B1FBF3F1A1
:1040800000EBC00303EB00136668B600B3FBF6F366
:104090006426B3FBF6F303EBC30606EB0313A1EBB5
:1040A0008301322303EB01116423B1FBF3F101F02F
:1040B0000F0111442268916053E0FDF763F900EBB2
:1040C000C00101EB001162689200B1FBF2F100EB5C
:1040D000C00202EB001263689B00B2FBF3F26423A0
:1040E000B2FBF3F202EBC20303EB0212A1EB82017B
:1040F000322202EB01116422B1FBF2F101F0F00176
:1041000000EBC00202EB001263689B00B2FBF3F20B
:104110006423B2FBF3F201EB021200EBC00101EBEE
:10412000001163689B00B1FBF3F100EBC00303EBEC
:1041300000136668B600B3FBF6F36426B3FBF6F330
:1041400003EBC30606EB0313A1EB8301322303EB5E
:1041500001116423B1FBF3F101F00F011144226856
:10416000916070BD00380140014691F83900212866
:104170002CD18868B0F5805F0FD10A6A1088C0F32F
:1041800008000B685860086918B9086A801C086242
:1041900009E0086A401C086205E00B6A581C0862C6
:1041A00018780B685860C88C401E80B2C88458B913
:1041B0000868C06820F080000B68D8600868C06894
:1041C00040F040000B68D860002070470220FCE7F8
:1041D00010B500240C48FDF739FC00BF01E0641C59
:1041E00000BF0948FDF727FC2028F8D100BF0024B4
:1041F00001E0641C00BF012204490348FDF74EFDA5
:104200000028F6D100BF10BDB00100201E01002023
:1042100010B5044609480A49086008464460002170
:104220008160C160016181610C214161FDF7B4FCD5
:10423000012204490248FDF731FD10BD003801405C
:10424000B00100201E01002000BFFEE70FB4054BA7
:1042500010B503A9044A029800F058F810BC5DF8A4
:1042600014FB00002D46000820010020002817DB69
:1042700000F01F02012191400A4A430942F823102D
:1042800000BF00BF00BFBFF34F8F00BF00BF00BF24
:1042900000BF00BF00BFBFF36F8F00BF00BF00BFF4
:1042A0007047000080E100E002480068C0F302208F
:1042B000704700000CED00E010B5002804DB0A0791
:1042C000130E054A135406E00A07140E034A00F0C1
:1042D0000F031B1FD45410BD00E400E018ED00E0F4
:1042E00002E008C8121F08C1002AFAD170477047BF
:1042F000002001E001C1121F002AFBD1704700001D
:104300000149086070470000240100202DE9FF4F9B
:104310008DB09B460F460446002606E025280BD0AC
:104320005A460F999047641C761C20780028F5D1D6
:1043300011B03046BDE8F08F0025A846012298490B
:1043400000E0054314F8013F203B02FA03F0084265
:10435000F7D120782E2817D114F8010F45F0040565
:104360002A280ED06FF02F022078A0F13001092901
:104370000AD808EB880102EB410100EB0108641C3C
:10438000F2E757F8048B641C20786C280DD004DC0D
:104390004C2812D06A2811D104E074280DD07A2854
:1043A0000CD10AE045F4001507E0617845F480156A
:1043B000814202D1641C05F58015641C2278692AAB
:1043C00045D008DC002AB3D0582A69D0632A10D01F
:1043D000642A08D13BE0702A67D0732A13D0752A6B
:1043E0005CD0782A5CD010465A460F999047761CCC
:1043F000D3E017F8040B8DF8000000208DF80100C1
:10440000E946012003E057F8049B4FF0FF306907AD
:104410004FF0000501D40AE06D1C45450DDA8542D8
:10442000FADB19F805100029F6D106E06D1C85426B
:10443000FCDB19F805100029F8D12E4404E019F826
:10444000010B5A460F9990476D1EF8D2A5E00A203D
:104450000021CDE90801C5F3025002280DD001CF9B
:10446000C117031E71F100030DDA4FF0000CD0EB01
:104470000C006CEB01012D2308E0FF1D27F007075E
:10448000F7E80201EDE72B0504D52B238DF8283042
:1044900001233BE0EB0739D02023F7E70A2000E0B7
:1044A00010200021CDE9080107E01020002145F08F
:1044B0000405CDE908014FF00808C5F302500228B1
:1044C0000FD001CF00214FF0000A2B071FD5702A13
:1044D0000DD0DDE908C38CF0100C5CEA030C0CD0A5
:1044E00015E0FF1D27F00707F7E80201EBE7402280
:1044F0008DF828204FF0010A0BE050EA010306D0A6
:1045000030238DF828308DF8292002239A46582A26
:1045100004D024A20DF120090B9209E026A2F9E7AC
:10452000DDE90823FCF718F80B9B9B5C09F8013DBB
:1045300050EA0102F4D1ADEB090020300890680781
:1045400001D44FF001080899884502DDA8EB01006D
:1045500000E000208046002506E00AA85A46405D9B
:104560000F9990476D1C761C5545F6DB04E0302012
:104570005A460F999047761CB8F10001A8F101083E
:10458000F5DC05E019F8010B5A460F999047761CA7
:104590000899481E08900029F4DC641CC5E6000058
:1045A0000928010030313233343536373839616209
:1045B00063646566000000003031323334353637CD
:1045C00038394142434445460000000030B50446B6
:1045D000002504E04FF47A7000F004F86D1CA54249
:1045E000F8D330BD70B5034600224FF0E026756960
:1045F0000D4E366803FB06F44FF0E026B16910E07B
:104600004FF0E026B06988420BD0884202D20E1AE1
:10461000324402E02E1A0E4432440146A24200D334
:1046200000E0EDE700BF70BD1801002000BF054AA3
:10463000126802F04002002AF9D0C2B2014B1B1DE1
:104640001A6070470038014008B500207A235022D4
:10465000062100900846FDF71DFE08BD08B50020A4
:104660004FF4B4739E22F42100905320FDF712FE04
:1046700008BD08B54FF6FF704FF4B4739E22F421C5
:1046800000905320FDF706FE08BD08B500204FF44A
:10469000B473EB22F4210090A120FDF7FBFD08BDCF
:1046A00008B54FF6FF704FF4B473EB22F42100907D
:1046B000A120FDF7EFFD08BD08B500204FF4B4734D
:1046C00040F23B12F4210090EE20FDF7E3FD08BD1F
:1046D00008B54FF6FF704FF4B47340F23B12F4216B
:1046E0000090EE20FDF7D6FD08BD08B5002040F291
:1046F000DB13502240F26B1100900620FDF7CAFD3B
:1047000008BD08B54FF6FF7040F2DB13502240F2AF
:104710006B1100900620FDF7BDFD08BD08B5002017
:1047200040F2DB139E2240F26B1100905320FDF704
:10473000B1FD08BD08B54FF6FF7040F2DB139E22B5
:1047400040F26B1100905320FDF7A4FD08BD08B5A1
:10475000002040F2DB13EB2240F26B110090A1200D
:10476000FDF798FD08BD08B54FF6FF7040F2DB136A
:10477000EB2240F26B110090A120FDF78BFD08BDEC
:1047800008B5002040F2DB1340F23B1240F26B11FF
:104790000090EE20FDF77EFD08BD08B54FF6FF70D6
:1047A00040F2DB1340F23B1240F26B110090EE201E
:1047B000FDF770FD08BD08B54FF6FF707A23502253
:1047C000062100900846FDF765FD08BD08B50020EC
:1047D0007A239E22062100905320FDF75BFD08BD41
:1047E00008B54FF6FF707A239E22062100905320D1
:1047F000FDF750FD08BD08B500207A23EB22062105
:104800000090A120FDF746FD08BD08B54FF6FF70EA
:104810007A23EB2206210090A120FDF73BFD08BD85
:1048200008B500207A2340F23B1206210090EE20CA
:10483000FDF730FD08BD08B54FF6FF707A2340F252
:104840003B1206210090EE20FDF724FD08BD08B5BF
:104850000020F12350227D2100900620FDF71AFD53
:1048600008BD08B54FF6FF70F12350227D2100905E
:104870000620FDF70FFD08BD08B50020F1239E229C
:104880007D2100905320FDF705FD08BD08B54FF6CA
:10489000FF70F1239E227D2100905320FDF7FAFC4A
:1048A00008BD08B50020F123EB227D210090A12056
:1048B000FDF7F0FC08BD08B54FF6FF70F123EB22C1
:1048C0007D210090A120FDF7E5FC08BD08B5002082
:1048D000F12340F23B127D210090EE20FDF7DAFC3F
:1048E00008BD08B54FF6FF70F12340F23B127D2161
:1048F0000090EE20FDF7CEFC08BD08B500204FF477
:10490000B4735022F42100900620FDF7C3FC08BDCB
:1049100008B54FF6FF704FF4B4735022F4210090A5
:104920000620FDF7B7FC08BD1CB500203C490880F7
:1049300008803CA01821CDE900103D48438802883A
:1049400032210A20FDF710FE4FF4FA70FFF73EFE09
:1049500038A01821CDE90010354843880288642129
:104960000A20FDF701FE37A01821CDE900103048DC
:104970004388028896210A20FDF7F6FD36A018210B
:10498000CDE900102A4843880288DC210A20FDF77F
:10499000EBFD36A01821CDE9001025484388028898
:1049A0004FF491710A20FDF7DFFD002082234FF4C0
:1049B0009672194600900720FDF76CFC0020C82372
:1049C0004FF49672194600900720FDF763FC002013
:1049D0004FF487734FF49672194600900720FDF745
:1049E00059FC00204FF4AA734FF4967219460090B8
:1049F0000720FDF74FFC00204FF4AA730722822105
:104A000000901046FDF746FC00204FF4AA734FF4C7
:104A10009672822100901046FDF73CFC1CBD000000
:104A20001200002057656C636F6D65212100000046
:104A30001600002053656C656374206D6F646520FB
:104A40003A000000736C6F772076656C6F63697451
:104A500079206D6F64650000717569636B20766500
:104A60006C6F63697479206D6F646500536F6D615D
:104A7000746F73656E736F7279206D6F646500007B
:104A800088B000BF00BFFEF713FAFCF711FB4FF42C
:104A9000E010FEF739F84820FEF72CF84FF4E1302B
:104AA000FFF7B6FBFDF7B2FDFEF7DEF8FDF7A8FA5B
:104AB000FEF7C0FFFDF754FFFFF736FF002006901A
:104AC00090E00020FFF758F900287CD0FE4880894C
:104AD000072826DDFC488089B0F5967F21DAFA4860
:104AE000008C82281DDDF848008CC82819DA0120C6
:104AF00006904FF4FC60C72340F22B1283210090F4
:104B00000820FDF7C7FB4FF49670FFF75FFD4FF6E7
:104B1000FF70C72340F22B12832100900820FDF77D
:104B2000B9FBE9488089072829DDE7488089B0F585
:104B3000967F24DAE448008CC82820DDE248008C07
:104B4000B0F5877F1BDA022006904FF4FC6040F23C
:104B50000D1340F22B12C92100900820FDF79AFB9B
:104B60004FF49670FFF732FD4FF6FF7040F20D13D1
:104B700040F22B12C92100900820FDF78BFBD24890
:104B8000808907282EDDD0488089B0F5967F29DA04
:104B9000CD48008CB0F5877F24DDCB48008CB0F584
:104BA000AA7F1FDA032006904FF4FC6040F25313F3
:104BB00040F22B1240F20F1100900820FDF76AFB23
:104BC0004FF4967000E00DE0FFF700FD4FF6FF7028
:104BD00040F2531340F22B1240F20F1100900820C4
:104BE000FDF758FB069800283FF46BAF4FF4967022
:104BF000FFF7ECFC0698012879D10020B349088022
:104C0000B3A01821CDE90010B74840880590B648F8
:104C100000880490024664210A20059BFDF7A4FC4D
:104C2000B2A01821CDE90010AF4840880590AE48E9
:104C30000088049002464FF4BE710A20059BFDF7E0
:104C400093FC4FF47A70FFF7C1FCADA01821CDE9B9
:104C50000010A54840880590A348008804900246AB
:104C60004FF4BE710A20059BFDF77EFC4FF47A706D
:104C7000FFF7ACFCA7A01821CDE900109A484088A6
:104C8000059099480088049002464FF4BE710A20AE
:104C9000059BFDF769FC4FF47A70FFF797FCA2A023
:104CA0001821CDE900109048408805908E48008872
:104CB000049002464FF4BE710A20059BFDF754FC98
:104CC0004FF47A70FFF782FC9E4800680190FBF772
:104CD000ACFB00229C4BCDE90201FBF726FBCDE9A2
:104CE0000401FBF7DCFB97490860ECE0FFE706985E
:104CF00002286CD100207549088094A01821CDE9C4
:104D00000010794840880590774800880490024652
:104D100064210A20059BFDF727FC74A01821CDE92A
:104D200000107148408805906F4800880490024642
:104D30004FF4BE710A20059BFDF716FC4FF47A7004
:104D4000FFF744FC6EA01821CDE9001066484088AA
:104D5000059065480088049002464FF4BE710A2011
:104D6000059BFDF701FC4FF47A70FFF72FFC69A05B
:104D70001821CDE900105C48408805905A48008809
:104D8000049002464FF4BE710A20059BFDF7ECFB30
:104D90004FF47A70FFF71AFC63A11820CDE90001E7
:104DA00051484088059050480088049002464FF4CE
:104DB000BE710A20059BFDF7D7FB4FF47A70FFF711
:104DC00005FC6048006840085E4908607BE0069882
:104DD000032878D100203D49088062A01821CDE940
:104DE00000104148408805903F48008804900246E2
:104DF00064210A20059BFDF7B7FB3CA01821CDE9F3
:104E000000103948408805903748008804900246D1
:104E10004FF4BE710A20059BFDF7A6FB4FF47A7094
:104E2000FFF7D4FB36A01821CDE900102E484088AA
:104E300005902D480088049002464FF4BE710A2068
:104E4000059BFDF791FB4FF47A70FFF7BFFB31A094
:104E50001821CDE900102448408805902248008898
:104E6000049002464FF4BE710A20059BFDF77CFBBF
:104E70004FF47A70FFF7AAFB2BA01821CDE90010A0
:104E800019484088059018480088049002464FF45D
:104E9000BE710A20059BFDF767FB4FF47A70FFF7A0
:104EA00095FB284800680190FBF7BFFA4FF03332BA
:104EB000334BCDE90201FBF738FACDE90401FBF7EA
:104EC000EEFA204908605DE0C000002012000020DA
:104ED0004D6F64653A2020736C6F772076656C6F38
:104EE0006369747900000000160000205374617239
:104EF00074696E6720696E20332E2E2E000000002C
:104F00005374617274696E6720696E20322E2E2E82
:104F1000000000005374617274696E6720696E202E
:104F2000312E2E2E00000000476F6F64206C7563D9
:104F30006B2077697468207468652067616D6520EF
:104F4000210000002C0400400000F83F4D6F646514
:104F50003A2020717569636B2076656C6F636974A4
:104F6000790000004D6F64653A2020536F6D6174C5
:104F70006F73656E736F7279206D6F6465000000EA
:104F80003333F33F01220421FE48FCF779F8FBF7A5
:104F9000B0FC1D200590059800280BDB059800F05B
:104FA0001F010120884005994909890001F1E0218C
:104FB000C1F8000100BF00BF0698012802D0069882
:104FC00002287DD1B6E20020FEF7D6FE0028F9D0F7
:104FD000ED48808950281BDAEB48008CB0F5B67F8D
:104FE00016DBEA48006B012812D14FF4FC6040F256
:104FF000DB13502240F26B1100900620FDF74AF9B6
:105000000020E2490863E2480068401CE04908606B
:10501000DD488089502824DADB48008CB0F5B67F63
:105020001FDBDA48406B01281BD14FF4784040F277
:10503000DB13502240F26B1100900620FDF72AF995
:105040004FF49670FFF7C2FA4FF6FF7040F2DB1391
:10505000502240F26B1100900620FDF71BF9FDF77E
:1050600003FCC9488089502824DAC748008CB0F571
:10507000B67F1FDBC548806B01281BD14FF47840F9
:1050800040F2DB13502240F26B1100900620FDF736
:1050900001F94FF49670FFF799FA4FF6FF7040F25E
:1050A000DB13502240F26B1100900620FDF7F2F85E
:1050B000FDF7DAFBB4488089502826DAB24800E0D0
:1050C00039E2008CB0F5B67F1FDBB048C06B012819
:1050D0001BD14FF4784040F2DB13502240F26B11A9
:1050E00000900620FDF7D6F84FF49670FFF76EFAA1
:1050F0004FF6FF7040F2DB13502240F26B1100902C
:105100000620FDF7C7F8FDF7AFFB9F4880899E2872
:105110001FDA9D48808953281BDD9B48008CB0F521
:10512000B67F16DB9948406B012812D14FF4FC6022
:1051300040F2DB139E2240F26B1100905320FDF7EA
:10514000A9F800219148416391480068401C9049AA
:1051500008608D4880899E2828DA8B4880895328EA
:1051600024DD8948008CB0F5B67F1FDB8748006BD3
:1051700001281BD14FF4784040F2DB139E2240F20D
:105180006B1100905320FDF785F84FF49670FFF7F0
:105190001DFA4FF6FF7040F2DB139E2240F26B11B6
:1051A00000905320FDF776F8FDF75EFB7648808986
:1051B0009E2828DA74488089532824DD7248008CA0
:1051C000B0F5B67F1FDB7148806B01281BD14FF40F
:1051D000784040F2DB139E2240F26B110090532086
:1051E000FDF758F84FF49670FFF7F0F94FF6FF709F
:1051F00040F2DB139E2240F26B1100905320FDF72A
:1052000049F8FDF731FB604880899E2828DA5E481E
:105210008089532824DD5C48008CB0F5B67F1FDB05
:105220005A48C06B01281BD14FF4784040F2DB1381
:105230009E2240F26B1100905320FDF72BF84FF4A3
:105240009670FFF7C3F94FF6FF7040F2DB139E2212
:1052500040F26B1100905320FDF71CF8FDF704FBA2
:1052600049488089EB281FDA47488089A1281BDD3F
:105270004548008CB0F5B67F16DB4448806B0128AA
:1052800012D14FF4FC6040F2DB13EB2240F26B11C1
:105290000090A120FCF7FEFF00213C4881633C48C0
:1052A0000068401C3A49086037488089EB2828DAB2
:1052B00035488089A12824DD3348008CB0F5B67FBD
:1052C0001FDB3248006B01281BD14FF4784040F2BD
:1052D000DB13EB2240F26B110090A120FCF7DAFF08
:1052E0004FF49670FFF772F94FF6FF7040F2DB1340
:1052F000EB2240F26B110090A120FCF7CBFFFDF7F1
:10530000B3FA21488089EB2828DA1F488089A12830
:1053100024DD1D48008CB0F5B67F1FDB1B48406BB9
:1053200001281BD14FF4784040F2DB13EB2240F20E
:105330006B110090A120FCF7ADFF4FF49670FFF7C2
:1053400045F94FF6FF7040F2DB13EB2240F26B1190
:105350000090A120FCF79EFFFDF786FA0A4880899D
:10536000EB2831DA08488089A1282DDD0648008C19
:10537000B0F5B67F28DB0548C06B012824D14FF477
:10538000784007E000100140C000002070010020BC
:105390002000002040F2DB13EB2240F26B11009062
:1053A000A120FCF777FF4FF49670FFF70FF94FF647
:1053B000FF7040F2DB13EB2240F26B110090A12052
:1053C000FCF768FFFDF750FA9B488089B0F59D7F98
:1053D00020DC99488089EE281CDD9748008CB0F5C8
:1053E000B67F17DB9548C06B012813D14FF4FC60E2
:1053F00040F2DB1340F23B1240F26B110090EE20C2
:10540000FCF748FF00218D48C1638D480068401CAF
:105410008B49086088488089B0F59D7F2ADC8648E2
:105420008089EE2826DD8448008CB0F5B67F21DB2C
:105430008248006B01281DD14FF4784040F2DB1305
:1054400040F23B1240F26B110090EE20FCF722FF7D
:105450004FF49670FFF7BAF84FF6FF7040F2DB1387
:1054600040F23B1240F26B110090EE20FCF712FF6D
:10547000FDF7FAF970488089B0F59D7F2ADC6E4807
:105480008089EE2826DD6C48008CB0F5B67F21DBE4
:105490006A48406B01281DD14FF4784040F2DB137D
:1054A00040F23B1240F26B110090EE20FCF7F2FE4E
:1054B0004FF49670FFF78AF84FF6FF7040F2DB1357
:1054C00040F23B1240F26B110090EE20FCF7E2FE3E
:1054D000FDF7CAF958488089B0F59D7F2ADC564807
:1054E0008089EE2826DD5448008CB0F5B67F21DB9C
:1054F0005248806B01281DD14FF4784040F2DB13F5
:1055000040F23B1240F26B110090EE20FCF7C2FE1D
:105510004FF49670FFF75AF84FF6FF7040F2DB1326
:1055200040F23B1240F26B110090EE20FCF7B2FE0D
:10553000FDF79AF947E5FDF749FA7CE04148006834
:10554000F0B341480078012818D13C48006B01288D
:1055500014D14FF4FC6040F2DB13502240F26B1187
:1055600000900620FCF796FE002034490863364977
:10557000087033480068401C3149086032480078A0
:10558000022819D12D48406B012815D14FF4FC6039
:1055900040F2DB139E2240F26B1100905320FCF787
:1055A00079FE0021254841630020274908702448DE
:1055B0000068401C2249086023480078032800E066
:1055C00039E019D11D48806B012815D14FF4FC60DA
:1055D00040F2DB13EB2240F26B110090A120FCF7AC
:1055E00059FE0021154881630020174908701448AE
:1055F0000068401C124908601348007804281AD13A
:105600000E48C06B012816D14FF4FC6040F2DB134A
:1056100040F23B1240F26B110090EE20FCF73AFE94
:1056200000210648C163002007490870044800684B
:10563000401C0349086081E7C00000207001002081
:105640002000002014010020110100202DE9F0416C
:1056500006460F46FBF755F8041E0D4618BF0120FD
:10566000284320F00040C0F17F6000F1E040C00F0F
:105670000ED0301C18BF0120384320F00040C0F18C
:105680007F6000F1E040C00F04BF0120FEF738FE4C
:1056900020462946BDE8F08100000000000000001F
:1056A00001020304060708090000000001020304C8
:1056B00000000000000000000000000000000000EA
:1056C0003F400000000000000000300040003000BB
:1056D0004000000009000BC03D000BC03D00090068
:1056E00018C024407FE0224031800000180024C010
:1056F0001B000D803240018003801C4027401C802D
:1057000007400040100060000000000000000000A2
:105710000000000000001F802040402000004020CA
:1057200020401F8000000000090006001F800600C6
:1057300009000000040004003F8004000400000091
:1057400000100060000000000000000004000400E1
:1057500004000400040000000000004000000000FD
:1057600000000000002001C00600380040000000DA
:105770001F802040204020401F800000000010407B
:105780003FC000400000000018C0214022402440DB
:105790001840000010802040244024401B8000005E
:1057A00002000D0011003FC0014000003C80244079
:1057B00024402440238000001F80244024403440A3
:1057C000038000003000200027C0380020000000C7
:1057D0001B802440244024401B8000001C0022C069
:1057E000224022401F80000000000000084000000E
:1057F0000000000000000000046000000000000045
:10580000000004000A001100208040400900090047
:10581000090009000900000000004040208011003C
:105820000A00040018002000234024001800000093
:105830001F802040274029401F400000004007C033
:1058400039000F0001C0004020403FC024402440E8
:105850001B8000001F80204020402040308000003E
:1058600020403FC0204020401F80000020403FC01B
:1058700024402E4030C0000020403FC024402E0075
:10588000300000000F0010802040224033800200D2
:1058900020403FC0040004003FC020402040204082
:1058A0003FC02040204000000060202020203FC05A
:1058B0002000200020403FC024400B0030C020408A
:1058C00020403FC020400040004000C03FC03C009E
:1058D00003C03C003FC0000020403FC00C402300FC
:1058E0003FC020001F802040204020401F8000003B
:1058F00020403FC024402400180000001F802140A9
:10590000214020E01FA0000020403FC0244026008E
:1059100019C0004018C024402440224031800000BB
:10592000300020403FC020403000000020003F8079
:10593000004000403F80200020003E0001C00700E2
:1059400038002000380007C03C0007C038000000C5
:10595000204039C0060039C02040000020003840F7
:1059600007C0384020000000304021C026403840A9
:1059700020C00000000000007FE040204020000028
:10598000000070000C000380004000000000402078
:1059900040207FE0000000000000200040002000C8
:1059A0000000000000100010001000100010001097
:1059B0000000000040000000000000000000028025
:1059C0000540054003C0004020003FC004400440A3
:1059D00003800000000003800440044006400000F3
:1059E00000000380044024403FC0004000000380CA
:1059F0000540054003400000000004401FC0244053
:105A000024402000000002E005500550065004200C
:105A100020403FC00440040003C000400000044098
:105A200027C000400000000000100010041027E014
:105A30000000000020403FC00140070004C00440B7
:105A4000204020403FC000400040000007C004004C
:105A500007C0040003C00000044007C00440040065
:105A600003C00040000003800440044003800000A5
:105A7000041007F00450044003800000000003807D
:105A80000440045007F00010044007C00240040026
:105A900004000000000006400540054004C000006E
:105AA000000004001F800440004000000400078044
:105AB0000040044007C000400400070004C001800B
:105AC00006000400060001C0070001C00600000037
:105AD000044006C0010006C0044000000410071086
